{
  "contractName": "AtomicSwap",
  "abi": [
    {
      "anonymous": false,
      "inputs": [
        {
          "indexed": true,
          "internalType": "address",
          "name": "participant",
          "type": "address"
        },
        {
          "indexed": true,
          "internalType": "uint256",
          "name": "secretHash",
          "type": "uint256"
        }
      ],
      "name": "AtomicSwapCreated",
      "type": "event"
    },
    {
      "anonymous": false,
      "inputs": [
        {
          "indexed": true,
          "internalType": "uint256",
          "name": "secretHash",
          "type": "uint256"
        },
        {
          "indexed": false,
          "internalType": "bytes",
          "name": "secret",
          "type": "bytes"
        }
      ],
      "name": "Redeemed",
      "type": "event"
    },
    {
      "constant": false,
      "inputs": [
        {
          "internalType": "uint256",
          "name": "secretHash",
          "type": "uint256"
        },
        {
          "internalType": "address",
          "name": "participant",
          "type": "address"
        },
        {
          "internalType": "uint256",
          "name": "value",
          "type": "uint256"
        },
        {
          "internalType": "uint256",
          "name": "timeLock",
          "type": "uint256"
        }
      ],
      "name": "createSwap",
      "outputs": [],
      "payable": true,
      "stateMutability": "payable",
      "type": "function"
    },
    {
      "constant": false,
      "inputs": [
        {
          "internalType": "uint256",
          "name": "secretHash",
          "type": "uint256"
        },
        {
          "internalType": "address",
          "name": "participant",
          "type": "address"
        },
        {
          "internalType": "uint256",
          "name": "value",
          "type": "uint256"
        },
        {
          "internalType": "uint256",
          "name": "timeLock",
          "type": "uint256"
        },
        {
          "internalType": "address",
          "name": "tokenAddr",
          "type": "address"
        }
      ],
      "name": "createSwapErc20",
      "outputs": [],
      "payable": false,
      "stateMutability": "nonpayable",
      "type": "function"
    },
    {
      "constant": false,
      "inputs": [
        {
          "internalType": "bytes",
          "name": "secret",
          "type": "bytes"
        }
      ],
      "name": "redeem",
      "outputs": [],
      "payable": false,
      "stateMutability": "nonpayable",
      "type": "function"
    },
    {
      "constant": false,
      "inputs": [
        {
          "internalType": "uint256",
          "name": "secretHash",
          "type": "uint256"
        }
      ],
      "name": "refund",
      "outputs": [],
      "payable": false,
      "stateMutability": "nonpayable",
      "type": "function"
    },
    {
      "constant": true,
      "inputs": [
        {
          "internalType": "uint256",
          "name": "secretHash",
          "type": "uint256"
        }
      ],
      "name": "params",
      "outputs": [
        {
          "internalType": "address",
          "name": "initiator",
          "type": "address"
        },
        {
          "internalType": "address",
          "name": "participant",
          "type": "address"
        },
        {
          "internalType": "uint256",
          "name": "timeLock",
          "type": "uint256"
        },
        {
          "internalType": "uint256",
          "name": "currTime",
          "type": "uint256"
        },
        {
          "internalType": "uint256",
          "name": "value",
          "type": "uint256"
        },
        {
          "internalType": "address",
          "name": "tokenAddr",
          "type": "address"
        },
        {
          "internalType": "enum AtomicSwap.SwapType",
          "name": "swapType",
          "type": "uint8"
        }
      ],
      "payable": false,
      "stateMutability": "view",
      "type": "function"
    },
    {
      "constant": true,
      "inputs": [
        {
          "internalType": "bytes",
          "name": "secret",
          "type": "bytes"
        }
      ],
      "name": "hashSecret",
      "outputs": [
        {
          "internalType": "uint256",
          "name": "",
          "type": "uint256"
        }
      ],
      "payable": false,
      "stateMutability": "pure",
      "type": "function"
    }
  ],
  "bytecode": "0x608060405234801561001057600080fd5b50611cb9806100206000396000f3fe6080604052600436106100555760003560e01c8063278ecde11461005a57806350661dee146100955780639945e3d3146101715780639d2f053c146101f7578063ae057c3714610302578063c74ea2c314610391575b600080fd5b34801561006657600080fd5b506100936004803603602081101561007d57600080fd5b81019080803590602001909291905050506103f3565b005b3480156100a157600080fd5b5061015b600480360360208110156100b857600080fd5b81019080803590602001906401000000008111156100d557600080fd5b8201836020820111156100e757600080fd5b8035906020019184600183028401116401000000008311171561010957600080fd5b91908080601f016020809104026020016040519081016040528093929190818152602001838380828437600081840152601f19601f82011690508083019250505050505050919291929050505061099b565b6040518082815260200191505060405180910390f35b34801561017d57600080fd5b506101f56004803603602081101561019457600080fd5b81019080803590602001906401000000008111156101b157600080fd5b8201836020820111156101c357600080fd5b803590602001918460018302840111640100000000831117156101e557600080fd5b9091929391929390505050610a45565b005b34801561020357600080fd5b506102306004803603602081101561021a57600080fd5b810190808035906020019092919050505061108f565b604051808873ffffffffffffffffffffffffffffffffffffffff1673ffffffffffffffffffffffffffffffffffffffff1681526020018773ffffffffffffffffffffffffffffffffffffffff1673ffffffffffffffffffffffffffffffffffffffff1681526020018681526020018581526020018481526020018373ffffffffffffffffffffffffffffffffffffffff1673ffffffffffffffffffffffffffffffffffffffff1681526020018260018111156102e857fe5b60ff16815260200197505050505050505060405180910390f35b34801561030e57600080fd5b5061038f600480360360a081101561032557600080fd5b8101908080359060200190929190803573ffffffffffffffffffffffffffffffffffffffff1690602001909291908035906020019092919080359060200190929190803573ffffffffffffffffffffffffffffffffffffffff16906020019092919050505061123a565b005b6103f1600480360360808110156103a757600080fd5b8101908080359060200190929190803573ffffffffffffffffffffffffffffffffffffffff16906020019092919080359060200190929190803590602001909291905050506117ff565b005b60008082815260200190815260200160002060040160149054906101000a900460ff16610488576040517f08c379a00000000000000000000000000000000000000000000000000000000081526004018080602001828103825260198152602001807f41746f6d696320537761702069736e277420637265617465640000000000000081525060200191505060405180910390fd5b426000808381526020019081526020016000206002015410610512576040517f08c379a00000000000000000000000000000000000000000000000000000000081526004018080602001828103825260198152602001807f41746f6d696320737761702069736e277420657870697265640000000000000081525060200191505060405180910390fd5b3373ffffffffffffffffffffffffffffffffffffffff1660008083815260200190815260200160002060000160019054906101000a900473ffffffffffffffffffffffffffffffffffffffff1673ffffffffffffffffffffffffffffffffffffffff16146105e8576040517f08c379a00000000000000000000000000000000000000000000000000000000081526004018080602001828103825260198152602001807f526566756e642063616e206f6e6c7920696e69746961746f720000000000000081525060200191505060405180910390fd5b6105f0611ba5565b6000808381526020019081526020016000206040518060e00160405290816000820160009054906101000a900460ff16600181111561062b57fe5b600181111561063657fe5b81526020016000820160019054906101000a900473ffffffffffffffffffffffffffffffffffffffff1673ffffffffffffffffffffffffffffffffffffffff1673ffffffffffffffffffffffffffffffffffffffff1681526020016001820160009054906101000a900473ffffffffffffffffffffffffffffffffffffffff1673ffffffffffffffffffffffffffffffffffffffff1673ffffffffffffffffffffffffffffffffffffffff16815260200160028201548152602001600382015481526020016004820160009054906101000a900473ffffffffffffffffffffffffffffffffffffffff1673ffffffffffffffffffffffffffffffffffffffff1673ffffffffffffffffffffffffffffffffffffffff1681526020016004820160149054906101000a900460ff1615151515815250509050600080838152602001908152602001600020600080820160006101000a81549060ff02191690556000820160016101000a81549073ffffffffffffffffffffffffffffffffffffffff02191690556001820160006101000a81549073ffffffffffffffffffffffffffffffffffffffff0219169055600282016000905560038201600090556004820160006101000a81549073ffffffffffffffffffffffffffffffffffffffff02191690556004820160146101000a81549060ff02191690555050600073ffffffffffffffffffffffffffffffffffffffff168160a0015173ffffffffffffffffffffffffffffffffffffffff16146109415760008160a0015190508073ffffffffffffffffffffffffffffffffffffffff1663a9059cbb836020015184608001516040518363ffffffff1660e01b8152600401808373ffffffffffffffffffffffffffffffffffffffff1673ffffffffffffffffffffffffffffffffffffffff16815260200182815260200192505050602060405180830381600087803b1580156108ff57600080fd5b505af1158015610913573d6000803e3d6000fd5b505050506040513d602081101561092957600080fd5b81019080805190602001909291905050505050610997565b6000816020015190508073ffffffffffffffffffffffffffffffffffffffff166108fc83608001519081150290604051600060405180830381858888f19350505050158015610994573d6000803e3d6000fd5b50505b5050565b60006002826040518082805190602001908083835b602083106109d357805182526020820191506020810190506020830392506109b0565b6001836020036101000a038019825116818451168082178552505050505050905001915050602060405180830381855afa158015610a15573d6000803e3d6000fd5b5050506040513d6020811015610a2a57600080fd5b810190808051906020019092919050505060001c9050919050565b6000610a9483838080601f016020809104026020016040519081016040528093929190818152602001838380828437600081840152601f19601f8201169050808301925050505050505061099b565b905060008082815260200190815260200160002060040160149054906101000a900460ff16610b2b576040517f08c379a00000000000000000000000000000000000000000000000000000000081526004018080602001828103825260198152602001807f41746f6d696320537761702069736e277420637265617465640000000000000081525060200191505060405180910390fd5b42600080838152602001908152602001600020600201541015610bb6576040517f08c379a00000000000000000000000000000000000000000000000000000000081526004018080602001828103825260138152602001807f41746f6d6963207377617020657870697265640000000000000000000000000081525060200191505060405180910390fd5b3373ffffffffffffffffffffffffffffffffffffffff1660008083815260200190815260200160002060010160009054906101000a900473ffffffffffffffffffffffffffffffffffffffff1673ffffffffffffffffffffffffffffffffffffffff1614610c8c576040517f08c379a000000000000000000000000000000000000000000000000000000000815260040180806020018281038252601b8152602001807f52656465656d2063616e206f6e6c79207061727469636970616e74000000000081525060200191505060405180910390fd5b610c94611ba5565b6000808381526020019081526020016000206040518060e00160405290816000820160009054906101000a900460ff166001811115610ccf57fe5b6001811115610cda57fe5b81526020016000820160019054906101000a900473ffffffffffffffffffffffffffffffffffffffff1673ffffffffffffffffffffffffffffffffffffffff1673ffffffffffffffffffffffffffffffffffffffff1681526020016001820160009054906101000a900473ffffffffffffffffffffffffffffffffffffffff1673ffffffffffffffffffffffffffffffffffffffff1673ffffffffffffffffffffffffffffffffffffffff16815260200160028201548152602001600382015481526020016004820160009054906101000a900473ffffffffffffffffffffffffffffffffffffffff1673ffffffffffffffffffffffffffffffffffffffff1673ffffffffffffffffffffffffffffffffffffffff1681526020016004820160149054906101000a900460ff1615151515815250509050600080838152602001908152602001600020600080820160006101000a81549060ff02191690556000820160016101000a81549073ffffffffffffffffffffffffffffffffffffffff02191690556001820160006101000a81549073ffffffffffffffffffffffffffffffffffffffff0219169055600282016000905560038201600090556004820160006101000a81549073ffffffffffffffffffffffffffffffffffffffff02191690556004820160146101000a81549060ff02191690555050600180811115610edf57fe5b81600001516001811115610eef57fe5b1415610fcf5760008160a0015190508073ffffffffffffffffffffffffffffffffffffffff1663a9059cbb836040015184608001516040518363ffffffff1660e01b8152600401808373ffffffffffffffffffffffffffffffffffffffff1673ffffffffffffffffffffffffffffffffffffffff16815260200182815260200192505050602060405180830381600087803b158015610f8d57600080fd5b505af1158015610fa1573d6000803e3d6000fd5b505050506040513d6020811015610fb757600080fd5b81019080805190602001909291905050505050611025565b6000816040015190508073ffffffffffffffffffffffffffffffffffffffff166108fc83608001519081150290604051600060405180830381858888f19350505050158015611022573d6000803e3d6000fd5b50505b817f0f021f85353a008a4d411bd4b05d36ae185a53da48a83b655e8bcf15b04a8867858560405180806020018281038252848482818152602001925080828437600081840152601f19601f820116905080830192505050935050505060405180910390a250505050565b600080600080600080600080600089815260200190815260200160002060040160149054906101000a900460ff1661112f576040517f08c379a00000000000000000000000000000000000000000000000000000000081526004018080602001828103825260198152602001807f41746f6d696320537761702069736e277420637265617465640000000000000081525060200191505060405180910390fd5b60008089815260200190815260200160002060000160019054906101000a900473ffffffffffffffffffffffffffffffffffffffff16965060008089815260200190815260200160002060010160009054906101000a900473ffffffffffffffffffffffffffffffffffffffff16955060008089815260200190815260200160002060020154945060008089815260200190815260200160002060030154925060008089815260200190815260200160002060040160009054906101000a900473ffffffffffffffffffffffffffffffffffffffff16915060008089815260200190815260200160002060000160009054906101000a900460ff169050429350919395979092949650565b60008086815260200190815260200160002060040160149054906101000a900460ff16156112d0576040517f08c379a000000000000000000000000000000000000000000000000000000000815260040180806020018281038252601b8152602001807f41746f6d6963205377617020616c72656164792063726561746564000000000081525060200191505060405180910390fd5b42821180156112e3575062093a80420182105b611355576040517f08c379a00000000000000000000000000000000000000000000000000000000081526004018080602001828103825260138152602001807f54696d656c6f636b20697320696e76616c69640000000000000000000000000081525060200191505060405180910390fd5b6040518060e0016040528060018081111561136c57fe5b81526020013373ffffffffffffffffffffffffffffffffffffffff1681526020018573ffffffffffffffffffffffffffffffffffffffff1681526020018381526020018481526020018273ffffffffffffffffffffffffffffffffffffffff1681526020016001151581525060008087815260200190815260200160002060008201518160000160006101000a81548160ff0219169083600181111561140e57fe5b021790555060208201518160000160016101000a81548173ffffffffffffffffffffffffffffffffffffffff021916908373ffffffffffffffffffffffffffffffffffffffff16021790555060408201518160010160006101000a81548173ffffffffffffffffffffffffffffffffffffffff021916908373ffffffffffffffffffffffffffffffffffffffff160217905550606082015181600201556080820151816003015560a08201518160040160006101000a81548173ffffffffffffffffffffffffffffffffffffffff021916908373ffffffffffffffffffffffffffffffffffffffff16021790555060c08201518160040160146101000a81548160ff0219169083151502179055509050506000819050838173ffffffffffffffffffffffffffffffffffffffff1663dd62ed3e33306040518363ffffffff1660e01b8152600401808373ffffffffffffffffffffffffffffffffffffffff1673ffffffffffffffffffffffffffffffffffffffff1681526020018273ffffffffffffffffffffffffffffffffffffffff1673ffffffffffffffffffffffffffffffffffffffff1681526020019250505060206040518083038186803b1580156115d657600080fd5b505afa1580156115ea573d6000803e3d6000fd5b505050506040513d602081101561160057600080fd5b81019080805190602001909291905050501015611668576040517f08c379a000000000000000000000000000000000000000000000000000000000815260040180806020018281038252602d815260200180611c58602d913960400191505060405180910390fd5b8073ffffffffffffffffffffffffffffffffffffffff166323b872dd3330876040518463ffffffff1660e01b8152600401808473ffffffffffffffffffffffffffffffffffffffff1673ffffffffffffffffffffffffffffffffffffffff1681526020018373ffffffffffffffffffffffffffffffffffffffff1673ffffffffffffffffffffffffffffffffffffffff1681526020018281526020019350505050602060405180830381600087803b15801561172357600080fd5b505af1158015611737573d6000803e3d6000fd5b505050506040513d602081101561174d57600080fd5b81019080805190602001909291905050506117b3576040517f08c379a0000000000000000000000000000000000000000000000000000000008152600401808060200182810382526026815260200180611c326026913960400191505060405180910390fd5b858573ffffffffffffffffffffffffffffffffffffffff167f9ad4bee2138a26702731b0d23529faab4d91d0ebf5817ea6a832db505011401460405160405180910390a3505050505050565b60008085815260200190815260200160002060040160149054906101000a900460ff1615611895576040517f08c379a000000000000000000000000000000000000000000000000000000000815260040180806020018281038252601b8152602001807f41746f6d6963205377617020616c72656164792063726561746564000000000081525060200191505060405180910390fd5b81341461190a576040517f08c379a000000000000000000000000000000000000000000000000000000000815260040180806020018281038252601b8152602001807f56616c75652077697468206d657373616765206e652076616c7565000000000081525060200191505060405180910390fd5b428111801561191d575062093a80420181105b61198f576040517f08c379a00000000000000000000000000000000000000000000000000000000081526004018080602001828103825260138152602001807f54696d656c6f636b20697320696e76616c69640000000000000000000000000081525060200191505060405180910390fd5b6040518060e00160405280600060018111156119a757fe5b81526020013373ffffffffffffffffffffffffffffffffffffffff1681526020018473ffffffffffffffffffffffffffffffffffffffff168152602001828152602001838152602001600073ffffffffffffffffffffffffffffffffffffffff1681526020016001151581525060008086815260200190815260200160002060008201518160000160006101000a81548160ff02191690836001811115611a4a57fe5b021790555060208201518160000160016101000a81548173ffffffffffffffffffffffffffffffffffffffff021916908373ffffffffffffffffffffffffffffffffffffffff16021790555060408201518160010160006101000a81548173ffffffffffffffffffffffffffffffffffffffff021916908373ffffffffffffffffffffffffffffffffffffffff160217905550606082015181600201556080820151816003015560a08201518160040160006101000a81548173ffffffffffffffffffffffffffffffffffffffff021916908373ffffffffffffffffffffffffffffffffffffffff16021790555060c08201518160040160146101000a81548160ff021916908315150217905550905050838373ffffffffffffffffffffffffffffffffffffffff167f9ad4bee2138a26702731b0d23529faab4d91d0ebf5817ea6a832db505011401460405160405180910390a350505050565b6040518060e0016040528060006001811115611bbd57fe5b8152602001600073ffffffffffffffffffffffffffffffffffffffff168152602001600073ffffffffffffffffffffffffffffffffffffffff1681526020016000815260200160008152602001600073ffffffffffffffffffffffffffffffffffffffff168152602001600015158152509056fe436f756c646e2774207472616e7366657220746f6b656e20746f2041746f6d69632053776170596f752073686f756c6420616c6c6f7720657263323020746f6b656e7320666f722041746f6d69632053776170a265627a7a723158201e59d855026509ce732d5319281ee9054a7260527b7da14e99fb049669d2d17464736f6c63430005100032",
  "source": "pragma solidity>=0.5.0;\n\nimport \"./ERC20.sol\";\n\ncontract AtomicSwap {\n\n    enum SwapType { ETH, ERC20 }\n\n    struct Swap {\n        SwapType swapType;\n        address initiator;\n        address participant;\n        uint256 timeLock;\n        uint256 value;\n        address tokenAddr;\n        bool exists;\n    }\n\n    mapping(uint256 => Swap) atomicSwaps;\n\n    event AtomicSwapCreated(address indexed participant, uint256 indexed secretHash);\n\n    event Redeemed(uint256 indexed secretHash, bytes secret);\n    \n    /**\n     * @dev        create Atomic Swap transfer native ethers from sender to participant.\n     * @param      secretHash   The secret hash is unique id of Atomic Swap\n     * @param      participant  The participant, destination of transfer\n     * @param      value        The value amount of weis\n     * @param      timeLock     The time lock\n     */\n    function createSwap(uint256 secretHash, address participant, uint256 value, uint256 timeLock) external payable {\n        require(!atomicSwaps[secretHash].exists, \"Atomic Swap already created\");\n        require(msg.value == value, \"Value with message ne value\");\n        require(timeLock > now && timeLock < now + 1 weeks, \"Timelock is invalid\");\n\n        atomicSwaps[secretHash] = Swap({\n            swapType: SwapType.ETH,\n            initiator: msg.sender,\n            participant: participant,\n            timeLock: timeLock,\n            value: value,\n            tokenAddr: address(0),\n            exists: true\n        });\n\n        emit AtomicSwapCreated(participant, secretHash);\n    }\n\n    /**\n     * @dev        create Atomic Swap transfer erc20 token from sender to participant\n     * @param      secretHash   The secret hash is unique id of Atomic Swap\n     * @param      participant  The participant, destination of transfer\n     * @param      value        The value is amount weis\n     * @param      timeLock     The time lock\n     * @param      tokenAddr    The ERC20 token address\n     */\n    function createSwapErc20(uint256 secretHash, address participant, uint256 value, uint256 timeLock, address tokenAddr) external {\n        require(!atomicSwaps[secretHash].exists, \"Atomic Swap already created\");\n        require(timeLock > now && timeLock < now + 1 weeks, \"Timelock is invalid\");\n\n        atomicSwaps[secretHash] = Swap({\n            swapType: SwapType.ERC20,\n            initiator: msg.sender,\n            participant: participant,\n            timeLock: timeLock,\n            value: value,\n            tokenAddr: tokenAddr,\n            exists: true\n        });\n        \n        ERC20 erc20 = ERC20(tokenAddr);\n        require(erc20.allowance(msg.sender, address(this)) >= value, \"You should allow erc20 tokens for Atomic Swap\");\n        require(erc20.transferFrom(msg.sender, address(this), value), \"Couldn't transfer token to Atomic Swap\");\n\n        emit AtomicSwapCreated(participant, secretHash);\n    }\n\n    /**\n     * @dev        redeem transfer by participant using secret and reveal secret for initiator \n     *             before time lock\n     * @param      secret  The secret\n     */\n    function redeem(bytes calldata secret) external {\n        uint256 secretHash = hashSecret(secret);\n        require(atomicSwaps[secretHash].exists, \"Atomic Swap isn't created\");\n        require(atomicSwaps[secretHash].timeLock >= now, \"Atomic swap expired\");\n        require(atomicSwaps[secretHash].participant == msg.sender, \"Redeem can only participant\");\n\n        Swap memory swap = atomicSwaps[secretHash];\n        delete atomicSwaps[secretHash];\n\n        if (swap.swapType == SwapType.ERC20) {\n            ERC20 erc20 = ERC20(swap.tokenAddr);\n            erc20.transfer(swap.participant, swap.value);\n\n        } else {\n            address payable participant = address(uint160(swap.participant));\n            participant.transfer(swap.value);\n        }\n\n        emit Redeemed(secretHash, secret);\n    }\n\n    /**\n     * @dev        refund transfer by initiator after time lock\n     * @param      secretHash  The secret hash is unique id of transfer\n     */\n    function refund(uint256 secretHash) external {\n        require(atomicSwaps[secretHash].exists, \"Atomic Swap isn't created\");\n        require(atomicSwaps[secretHash].timeLock < now, \"Atomic swap isn't expired\");\n        require(atomicSwaps[secretHash].initiator == msg.sender, \"Refund can only initiator\");\n\n        Swap memory swap = atomicSwaps[secretHash];\n        delete atomicSwaps[secretHash];\n\n        if (swap.tokenAddr != address(0)) {\n            ERC20 erc20 = ERC20(swap.tokenAddr);\n            erc20.transfer(swap.initiator, swap.value);\n\n        } else {\n            address payable initiator = address(uint160(swap.initiator));\n            initiator.transfer(swap.value);\n        }\n    }\n\n    /**\n     * @dev        get params to verify Atomic Swap transfer\n     * @param      secretHash  The secret hash\n     */\n    function params(uint256 secretHash) public view returns (\n        address initiator,\n        address participant,\n        uint256 timeLock,\n        uint256 currTime,\n        uint256 value,\n        address tokenAddr,\n        SwapType swapType\n    ) {\n        require(atomicSwaps[secretHash].exists, \"Atomic Swap isn't created\");\n        initiator = atomicSwaps[secretHash].initiator;\n        participant = atomicSwaps[secretHash].participant;\n        timeLock = atomicSwaps[secretHash].timeLock;\n        value = atomicSwaps[secretHash].value;\n        tokenAddr = atomicSwaps[secretHash].tokenAddr;\n        swapType = atomicSwaps[secretHash].swapType;\n        currTime = now;\n    }\n\n    /**\n     * @dev        helper method to check hash function result, call only local\n     * @param      secret  The secret\n     */\n    function hashSecret(bytes memory secret) public pure returns (uint256) {\n        return uint256(sha256(secret));\n    }\n}\n",
  "sourcePath": "/home/nailkhaf/repos/freeton-atomic-swap/eth/contracts/AtomicSwap.sol",
  "compiler": {
    "name": "solc",
    "version": "0.5.16+commit.9c3226ce.Emscripten.clang"
  },
  "schemaVersion": "3.2.4",
  "updatedAt": "2020-09-20T11:08:49.230Z",
  "networkType": "ethereum",
  "devdoc": {
    "methods": {
      "createSwap(uint256,address,uint256,uint256)": {
        "details": "create Atomic Swap transfer native ethers from sender to participant.",
        "params": {
          "participant": "The participant, destination of transfer",
          "secretHash": "The secret hash is unique id of Atomic Swap",
          "timeLock": "The time lock",
          "value": "The value amount of weis"
        }
      },
      "createSwapErc20(uint256,address,uint256,uint256,address)": {
        "details": "create Atomic Swap transfer erc20 token from sender to participant",
        "params": {
          "participant": "The participant, destination of transfer",
          "secretHash": "The secret hash is unique id of Atomic Swap",
          "timeLock": "The time lock",
          "tokenAddr": "The ERC20 token address",
          "value": "The value is amount weis"
        }
      },
      "hashSecret(bytes)": {
        "details": "helper method to check hash function result, call only local",
        "params": {
          "secret": "The secret"
        }
      },
      "params(uint256)": {
        "details": "get params to verify Atomic Swap transfer",
        "params": {
          "secretHash": "The secret hash"
        }
      },
      "redeem(bytes)": {
        "details": "redeem transfer by participant using secret and reveal secret for initiator             before time lock",
        "params": {
          "secret": "The secret"
        }
      },
      "refund(uint256)": {
        "details": "refund transfer by initiator after time lock",
        "params": {
          "secretHash": "The secret hash is unique id of transfer"
        }
      }
    }
  },
  "userdoc": {
    "methods": {}
  }
}