{
  "contractName": "AtomicSwap",
  "abi": [
    {
      "anonymous": false,
      "inputs": [
        {
          "indexed": true,
          "internalType": "uint256",
          "name": "secretHash",
          "type": "uint256"
        }
      ],
      "name": "AtomicSwapCreated",
      "type": "event"
    },
    {
      "anonymous": false,
      "inputs": [
        {
          "indexed": true,
          "internalType": "uint256",
          "name": "secretHash",
          "type": "uint256"
        },
        {
          "indexed": false,
          "internalType": "bytes",
          "name": "secret",
          "type": "bytes"
        }
      ],
      "name": "Redeemed",
      "type": "event"
    },
    {
      "constant": false,
      "inputs": [
        {
          "internalType": "uint256",
          "name": "secretHash",
          "type": "uint256"
        },
        {
          "internalType": "address",
          "name": "participant",
          "type": "address"
        },
        {
          "internalType": "uint256",
          "name": "value",
          "type": "uint256"
        },
        {
          "internalType": "uint256",
          "name": "timeLock",
          "type": "uint256"
        }
      ],
      "name": "createSwap",
      "outputs": [],
      "payable": true,
      "stateMutability": "payable",
      "type": "function"
    },
    {
      "constant": false,
      "inputs": [
        {
          "internalType": "uint256",
          "name": "secretHash",
          "type": "uint256"
        },
        {
          "internalType": "address",
          "name": "participant",
          "type": "address"
        },
        {
          "internalType": "uint256",
          "name": "value",
          "type": "uint256"
        },
        {
          "internalType": "uint256",
          "name": "timeLock",
          "type": "uint256"
        },
        {
          "internalType": "address",
          "name": "tokenAddr",
          "type": "address"
        }
      ],
      "name": "createSwapErc20",
      "outputs": [],
      "payable": false,
      "stateMutability": "nonpayable",
      "type": "function"
    },
    {
      "constant": false,
      "inputs": [
        {
          "internalType": "bytes",
          "name": "secret",
          "type": "bytes"
        }
      ],
      "name": "redeem",
      "outputs": [],
      "payable": false,
      "stateMutability": "nonpayable",
      "type": "function"
    },
    {
      "constant": false,
      "inputs": [
        {
          "internalType": "uint256",
          "name": "secretHash",
          "type": "uint256"
        }
      ],
      "name": "refund",
      "outputs": [],
      "payable": false,
      "stateMutability": "nonpayable",
      "type": "function"
    },
    {
      "constant": true,
      "inputs": [
        {
          "internalType": "uint256",
          "name": "secretHash",
          "type": "uint256"
        }
      ],
      "name": "params",
      "outputs": [
        {
          "internalType": "address",
          "name": "initiator",
          "type": "address"
        },
        {
          "internalType": "address",
          "name": "participant",
          "type": "address"
        },
        {
          "internalType": "uint256",
          "name": "timeLock",
          "type": "uint256"
        },
        {
          "internalType": "uint256",
          "name": "value",
          "type": "uint256"
        },
        {
          "internalType": "address",
          "name": "tokenAddr",
          "type": "address"
        },
        {
          "internalType": "enum AtomicSwap.SwapType",
          "name": "swapType",
          "type": "uint8"
        }
      ],
      "payable": false,
      "stateMutability": "view",
      "type": "function"
    },
    {
      "constant": true,
      "inputs": [
        {
          "internalType": "bytes",
          "name": "secret",
          "type": "bytes"
        }
      ],
      "name": "hashSecret",
      "outputs": [
        {
          "internalType": "uint256",
          "name": "",
          "type": "uint256"
        }
      ],
      "payable": false,
      "stateMutability": "pure",
      "type": "function"
    }
  ],
  "bytecode": "0x608060405234801561001057600080fd5b50611c7d806100206000396000f3fe6080604052600436106100555760003560e01c8063278ecde11461005a57806350661dee146100955780639945e3d3146101715780639d2f053c146101f7578063ae057c37146102fb578063c74ea2c31461038a575b600080fd5b34801561006657600080fd5b506100936004803603602081101561007d57600080fd5b81019080803590602001909291905050506103ec565b005b3480156100a157600080fd5b5061015b600480360360208110156100b857600080fd5b81019080803590602001906401000000008111156100d557600080fd5b8201836020820111156100e757600080fd5b8035906020019184600183028401116401000000008311171561010957600080fd5b91908080601f016020809104026020016040519081016040528093929190818152602001838380828437600081840152601f19601f820116905080830192505050505050509192919290505050610994565b6040518082815260200191505060405180910390f35b34801561017d57600080fd5b506101f56004803603602081101561019457600080fd5b81019080803590602001906401000000008111156101b157600080fd5b8201836020820111156101c357600080fd5b803590602001918460018302840111640100000000831117156101e557600080fd5b9091929391929390505050610a3e565b005b34801561020357600080fd5b506102306004803603602081101561021a57600080fd5b8101908080359060200190929190505050611088565b604051808773ffffffffffffffffffffffffffffffffffffffff1673ffffffffffffffffffffffffffffffffffffffff1681526020018673ffffffffffffffffffffffffffffffffffffffff1673ffffffffffffffffffffffffffffffffffffffff1681526020018581526020018481526020018373ffffffffffffffffffffffffffffffffffffffff1673ffffffffffffffffffffffffffffffffffffffff1681526020018260018111156102e257fe5b60ff168152602001965050505050505060405180910390f35b34801561030757600080fd5b50610388600480360360a081101561031e57600080fd5b8101908080359060200190929190803573ffffffffffffffffffffffffffffffffffffffff1690602001909291908035906020019092919080359060200190929190803573ffffffffffffffffffffffffffffffffffffffff16906020019092919050505061122c565b005b6103ea600480360360808110156103a057600080fd5b8101908080359060200190929190803573ffffffffffffffffffffffffffffffffffffffff16906020019092919080359060200190929190803590602001909291905050506117da565b005b60008082815260200190815260200160002060040160149054906101000a900460ff16610481576040517f08c379a00000000000000000000000000000000000000000000000000000000081526004018080602001828103825260198152602001807f41746f6d696320537761702069736e277420637265617465640000000000000081525060200191505060405180910390fd5b42600080838152602001908152602001600020600201541061050b576040517f08c379a00000000000000000000000000000000000000000000000000000000081526004018080602001828103825260198152602001807f41746f6d696320737761702069736e277420657870697265640000000000000081525060200191505060405180910390fd5b3373ffffffffffffffffffffffffffffffffffffffff1660008083815260200190815260200160002060000160019054906101000a900473ffffffffffffffffffffffffffffffffffffffff1673ffffffffffffffffffffffffffffffffffffffff16146105e1576040517f08c379a00000000000000000000000000000000000000000000000000000000081526004018080602001828103825260198152602001807f526566756e642063616e206f6e6c7920696e69746961746f720000000000000081525060200191505060405180910390fd5b6105e9611b69565b6000808381526020019081526020016000206040518060e00160405290816000820160009054906101000a900460ff16600181111561062457fe5b600181111561062f57fe5b81526020016000820160019054906101000a900473ffffffffffffffffffffffffffffffffffffffff1673ffffffffffffffffffffffffffffffffffffffff1673ffffffffffffffffffffffffffffffffffffffff1681526020016001820160009054906101000a900473ffffffffffffffffffffffffffffffffffffffff1673ffffffffffffffffffffffffffffffffffffffff1673ffffffffffffffffffffffffffffffffffffffff16815260200160028201548152602001600382015481526020016004820160009054906101000a900473ffffffffffffffffffffffffffffffffffffffff1673ffffffffffffffffffffffffffffffffffffffff1673ffffffffffffffffffffffffffffffffffffffff1681526020016004820160149054906101000a900460ff1615151515815250509050600080838152602001908152602001600020600080820160006101000a81549060ff02191690556000820160016101000a81549073ffffffffffffffffffffffffffffffffffffffff02191690556001820160006101000a81549073ffffffffffffffffffffffffffffffffffffffff0219169055600282016000905560038201600090556004820160006101000a81549073ffffffffffffffffffffffffffffffffffffffff02191690556004820160146101000a81549060ff02191690555050600073ffffffffffffffffffffffffffffffffffffffff168160a0015173ffffffffffffffffffffffffffffffffffffffff161461093a5760008160a0015190508073ffffffffffffffffffffffffffffffffffffffff1663a9059cbb836020015184608001516040518363ffffffff1660e01b8152600401808373ffffffffffffffffffffffffffffffffffffffff1673ffffffffffffffffffffffffffffffffffffffff16815260200182815260200192505050602060405180830381600087803b1580156108f857600080fd5b505af115801561090c573d6000803e3d6000fd5b505050506040513d602081101561092257600080fd5b81019080805190602001909291905050505050610990565b6000816020015190508073ffffffffffffffffffffffffffffffffffffffff166108fc83608001519081150290604051600060405180830381858888f1935050505015801561098d573d6000803e3d6000fd5b50505b5050565b60006002826040518082805190602001908083835b602083106109cc57805182526020820191506020810190506020830392506109a9565b6001836020036101000a038019825116818451168082178552505050505050905001915050602060405180830381855afa158015610a0e573d6000803e3d6000fd5b5050506040513d6020811015610a2357600080fd5b810190808051906020019092919050505060001c9050919050565b6000610a8d83838080601f016020809104026020016040519081016040528093929190818152602001838380828437600081840152601f19601f82011690508083019250505050505050610994565b905060008082815260200190815260200160002060040160149054906101000a900460ff16610b24576040517f08c379a00000000000000000000000000000000000000000000000000000000081526004018080602001828103825260198152602001807f41746f6d696320537761702069736e277420637265617465640000000000000081525060200191505060405180910390fd5b42600080838152602001908152602001600020600201541015610baf576040517f08c379a00000000000000000000000000000000000000000000000000000000081526004018080602001828103825260138152602001807f41746f6d6963207377617020657870697265640000000000000000000000000081525060200191505060405180910390fd5b3373ffffffffffffffffffffffffffffffffffffffff1660008083815260200190815260200160002060010160009054906101000a900473ffffffffffffffffffffffffffffffffffffffff1673ffffffffffffffffffffffffffffffffffffffff1614610c85576040517f08c379a000000000000000000000000000000000000000000000000000000000815260040180806020018281038252601b8152602001807f52656465656d2063616e206f6e6c79207061727469636970616e74000000000081525060200191505060405180910390fd5b610c8d611b69565b6000808381526020019081526020016000206040518060e00160405290816000820160009054906101000a900460ff166001811115610cc857fe5b6001811115610cd357fe5b81526020016000820160019054906101000a900473ffffffffffffffffffffffffffffffffffffffff1673ffffffffffffffffffffffffffffffffffffffff1673ffffffffffffffffffffffffffffffffffffffff1681526020016001820160009054906101000a900473ffffffffffffffffffffffffffffffffffffffff1673ffffffffffffffffffffffffffffffffffffffff1673ffffffffffffffffffffffffffffffffffffffff16815260200160028201548152602001600382015481526020016004820160009054906101000a900473ffffffffffffffffffffffffffffffffffffffff1673ffffffffffffffffffffffffffffffffffffffff1673ffffffffffffffffffffffffffffffffffffffff1681526020016004820160149054906101000a900460ff1615151515815250509050600080838152602001908152602001600020600080820160006101000a81549060ff02191690556000820160016101000a81549073ffffffffffffffffffffffffffffffffffffffff02191690556001820160006101000a81549073ffffffffffffffffffffffffffffffffffffffff0219169055600282016000905560038201600090556004820160006101000a81549073ffffffffffffffffffffffffffffffffffffffff02191690556004820160146101000a81549060ff02191690555050600180811115610ed857fe5b81600001516001811115610ee857fe5b1415610fc85760008160a0015190508073ffffffffffffffffffffffffffffffffffffffff1663a9059cbb836040015184608001516040518363ffffffff1660e01b8152600401808373ffffffffffffffffffffffffffffffffffffffff1673ffffffffffffffffffffffffffffffffffffffff16815260200182815260200192505050602060405180830381600087803b158015610f8657600080fd5b505af1158015610f9a573d6000803e3d6000fd5b505050506040513d6020811015610fb057600080fd5b8101908080519060200190929190505050505061101e565b6000816040015190508073ffffffffffffffffffffffffffffffffffffffff166108fc83608001519081150290604051600060405180830381858888f1935050505015801561101b573d6000803e3d6000fd5b50505b817f0f021f85353a008a4d411bd4b05d36ae185a53da48a83b655e8bcf15b04a8867858560405180806020018281038252848482818152602001925080828437600081840152601f19601f820116905080830192505050935050505060405180910390a250505050565b60008060008060008060008088815260200190815260200160002060040160149054906101000a900460ff16611126576040517f08c379a00000000000000000000000000000000000000000000000000000000081526004018080602001828103825260198152602001807f41746f6d696320537761702069736e277420637265617465640000000000000081525060200191505060405180910390fd5b60008088815260200190815260200160002060000160019054906101000a900473ffffffffffffffffffffffffffffffffffffffff16955060008088815260200190815260200160002060010160009054906101000a900473ffffffffffffffffffffffffffffffffffffffff16945060008088815260200190815260200160002060020154935060008088815260200190815260200160002060030154925060008088815260200190815260200160002060040160009054906101000a900473ffffffffffffffffffffffffffffffffffffffff16915060008088815260200190815260200160002060000160009054906101000a900460ff16905091939550919395565b60008086815260200190815260200160002060040160149054906101000a900460ff16156112c2576040517f08c379a000000000000000000000000000000000000000000000000000000000815260040180806020018281038252601b8152602001807f41746f6d6963205377617020616c72656164792063726561746564000000000081525060200191505060405180910390fd5b42821180156112d5575062093a80420182105b611347576040517f08c379a00000000000000000000000000000000000000000000000000000000081526004018080602001828103825260138152602001807f54696d656c6f636b20697320696e76616c69640000000000000000000000000081525060200191505060405180910390fd5b6040518060e0016040528060018081111561135e57fe5b81526020013373ffffffffffffffffffffffffffffffffffffffff1681526020018573ffffffffffffffffffffffffffffffffffffffff1681526020018381526020018481526020018273ffffffffffffffffffffffffffffffffffffffff1681526020016001151581525060008087815260200190815260200160002060008201518160000160006101000a81548160ff0219169083600181111561140057fe5b021790555060208201518160000160016101000a81548173ffffffffffffffffffffffffffffffffffffffff021916908373ffffffffffffffffffffffffffffffffffffffff16021790555060408201518160010160006101000a81548173ffffffffffffffffffffffffffffffffffffffff021916908373ffffffffffffffffffffffffffffffffffffffff160217905550606082015181600201556080820151816003015560a08201518160040160006101000a81548173ffffffffffffffffffffffffffffffffffffffff021916908373ffffffffffffffffffffffffffffffffffffffff16021790555060c08201518160040160146101000a81548160ff0219169083151502179055509050506000819050838173ffffffffffffffffffffffffffffffffffffffff1663dd62ed3e33306040518363ffffffff1660e01b8152600401808373ffffffffffffffffffffffffffffffffffffffff1673ffffffffffffffffffffffffffffffffffffffff1681526020018273ffffffffffffffffffffffffffffffffffffffff1673ffffffffffffffffffffffffffffffffffffffff1681526020019250505060206040518083038186803b1580156115c857600080fd5b505afa1580156115dc573d6000803e3d6000fd5b505050506040513d60208110156115f257600080fd5b8101908080519060200190929190505050101561165a576040517f08c379a000000000000000000000000000000000000000000000000000000000815260040180806020018281038252602d815260200180611c1c602d913960400191505060405180910390fd5b8073ffffffffffffffffffffffffffffffffffffffff166323b872dd3330876040518463ffffffff1660e01b8152600401808473ffffffffffffffffffffffffffffffffffffffff1673ffffffffffffffffffffffffffffffffffffffff1681526020018373ffffffffffffffffffffffffffffffffffffffff1673ffffffffffffffffffffffffffffffffffffffff1681526020018281526020019350505050602060405180830381600087803b15801561171557600080fd5b505af1158015611729573d6000803e3d6000fd5b505050506040513d602081101561173f57600080fd5b81019080805190602001909291905050506117a5576040517f08c379a0000000000000000000000000000000000000000000000000000000008152600401808060200182810382526026815260200180611bf66026913960400191505060405180910390fd5b857fa9403cc4309611510bc74ba260049c320832f45974a8cf1d5dcb30b2df4c8e5360405160405180910390a2505050505050565b60008085815260200190815260200160002060040160149054906101000a900460ff1615611870576040517f08c379a000000000000000000000000000000000000000000000000000000000815260040180806020018281038252601b8152602001807f41746f6d6963205377617020616c72656164792063726561746564000000000081525060200191505060405180910390fd5b8134146118e5576040517f08c379a000000000000000000000000000000000000000000000000000000000815260040180806020018281038252601b8152602001807f56616c75652077697468206d657373616765206c742076616c7565000000000081525060200191505060405180910390fd5b42811180156118f8575062093a80420181105b61196a576040517f08c379a00000000000000000000000000000000000000000000000000000000081526004018080602001828103825260138152602001807f54696d656c6f636b20697320696e76616c69640000000000000000000000000081525060200191505060405180910390fd5b6040518060e001604052806000600181111561198257fe5b81526020013373ffffffffffffffffffffffffffffffffffffffff1681526020018473ffffffffffffffffffffffffffffffffffffffff168152602001828152602001838152602001600073ffffffffffffffffffffffffffffffffffffffff1681526020016001151581525060008086815260200190815260200160002060008201518160000160006101000a81548160ff02191690836001811115611a2557fe5b021790555060208201518160000160016101000a81548173ffffffffffffffffffffffffffffffffffffffff021916908373ffffffffffffffffffffffffffffffffffffffff16021790555060408201518160010160006101000a81548173ffffffffffffffffffffffffffffffffffffffff021916908373ffffffffffffffffffffffffffffffffffffffff160217905550606082015181600201556080820151816003015560a08201518160040160006101000a81548173ffffffffffffffffffffffffffffffffffffffff021916908373ffffffffffffffffffffffffffffffffffffffff16021790555060c08201518160040160146101000a81548160ff021916908315150217905550905050837fa9403cc4309611510bc74ba260049c320832f45974a8cf1d5dcb30b2df4c8e5360405160405180910390a250505050565b6040518060e0016040528060006001811115611b8157fe5b8152602001600073ffffffffffffffffffffffffffffffffffffffff168152602001600073ffffffffffffffffffffffffffffffffffffffff1681526020016000815260200160008152602001600073ffffffffffffffffffffffffffffffffffffffff168152602001600015158152509056fe436f756c646e2774207472616e7366657220746f6b656e20746f2041746f6d69632053776170596f752073686f756c6420616c6c6f7720657263323020746f6b656e7320666f722041746f6d69632053776170a265627a7a72315820eee17797a0900bdd07ddaaa6d766643b7b71533d151f763244e02bd586710d9a64736f6c63430005100032",
  "source": "pragma solidity>=0.5.0;\n\nimport \"./ERC20.sol\";\n\ncontract AtomicSwap {\n\n    enum SwapType { ETH, ERC20 }\n\n    struct Swap {\n        SwapType swapType;\n        address initiator;\n        address participant;\n        uint256 timeLock;\n        uint256 value;\n        address tokenAddr;\n        bool exists;\n    }\n\n    mapping(uint256 => Swap) atomicSwaps;\n\n    event AtomicSwapCreated(uint256 indexed secretHash);\n\n    event Redeemed(uint256 indexed secretHash, bytes secret);\n    \n    function createSwap(uint256 secretHash, address participant, uint256 value, uint256 timeLock) external payable {\n        require(!atomicSwaps[secretHash].exists, \"Atomic Swap already created\");\n        require(msg.value == value, \"Value with message lt value\");\n        require(timeLock > now && timeLock < now + 1 weeks, \"Timelock is invalid\");\n\n        atomicSwaps[secretHash] = Swap({\n            swapType: SwapType.ETH,\n            initiator: msg.sender,\n            participant: participant,\n            timeLock: timeLock,\n            value: value,\n            tokenAddr: address(0),\n            exists: true\n        });\n\n        emit AtomicSwapCreated(secretHash);\n    }\n\n    function createSwapErc20(uint256 secretHash, address participant, uint256 value, uint256 timeLock, address tokenAddr) external {\n        require(!atomicSwaps[secretHash].exists, \"Atomic Swap already created\");\n        require(timeLock > now && timeLock < now + 1 weeks, \"Timelock is invalid\");\n\n        atomicSwaps[secretHash] = Swap({\n            swapType: SwapType.ERC20,\n            initiator: msg.sender,\n            participant: participant,\n            timeLock: timeLock,\n            value: value,\n            tokenAddr: tokenAddr,\n            exists: true\n        });\n        \n        ERC20 erc20 = ERC20(tokenAddr);\n        require(erc20.allowance(msg.sender, address(this)) >= value, \"You should allow erc20 tokens for Atomic Swap\");\n        require(erc20.transferFrom(msg.sender, address(this), value), \"Couldn't transfer token to Atomic Swap\");\n\n        emit AtomicSwapCreated(secretHash);\n    }\n\n    function redeem(bytes calldata secret) external {\n        uint256 secretHash = hashSecret(secret);\n        require(atomicSwaps[secretHash].exists, \"Atomic Swap isn't created\");\n        require(atomicSwaps[secretHash].timeLock >= now, \"Atomic swap expired\");\n        require(atomicSwaps[secretHash].participant == msg.sender, \"Redeem can only participant\");\n\n        Swap memory swap = atomicSwaps[secretHash];\n        delete atomicSwaps[secretHash];\n\n        if (swap.swapType == SwapType.ERC20) {\n            ERC20 erc20 = ERC20(swap.tokenAddr);\n            erc20.transfer(swap.participant, swap.value);\n\n        } else {\n            address payable participant = address(uint160(swap.participant));\n            participant.transfer(swap.value);\n        }\n\n        emit Redeemed(secretHash, secret);\n    }\n\n    function refund(uint256 secretHash) external {\n        require(atomicSwaps[secretHash].exists, \"Atomic Swap isn't created\");\n        require(atomicSwaps[secretHash].timeLock < now, \"Atomic swap isn't expired\");\n        require(atomicSwaps[secretHash].initiator == msg.sender, \"Refund can only initiator\");\n\n        Swap memory swap = atomicSwaps[secretHash];\n        delete atomicSwaps[secretHash];\n\n        if (swap.tokenAddr != address(0)) {\n            ERC20 erc20 = ERC20(swap.tokenAddr);\n            erc20.transfer(swap.initiator, swap.value);\n\n        } else {\n            address payable initiator = address(uint160(swap.initiator));\n            initiator.transfer(swap.value);\n        }\n    }\n\n    function params(uint256 secretHash) public view returns (\n        address initiator,\n        address participant,\n        uint256 timeLock,\n        uint256 value,\n        address tokenAddr,\n        SwapType swapType\n    ) {\n        require(atomicSwaps[secretHash].exists, \"Atomic Swap isn't created\");\n        initiator = atomicSwaps[secretHash].initiator;\n        participant = atomicSwaps[secretHash].participant;\n        timeLock = atomicSwaps[secretHash].timeLock;\n        value = atomicSwaps[secretHash].value;\n        tokenAddr = atomicSwaps[secretHash].tokenAddr;\n        swapType = atomicSwaps[secretHash].swapType;\n    }\n\n    function hashSecret(bytes memory secret) public pure returns (uint256) {\n        return uint256(sha256(secret));\n    }\n}\n",
  "sourcePath": "/home/nailkhaf/repos/freeton-atomic-swap/eth/contracts/AtomicSwap.sol",
  "compiler": {
    "name": "solc",
    "version": "0.5.16+commit.9c3226ce.Emscripten.clang"
  },
  "schemaVersion": "3.2.4",
  "updatedAt": "2020-09-17T16:31:47.830Z",
  "devdoc": {
    "methods": {}
  },
  "userdoc": {
    "methods": {}
  }
}